{
  "contractName": "BasicToken",
  "abi": [
    {
      "constant": true,
      "inputs": [
        {
          "internalType": "address",
          "name": "",
          "type": "address"
        }
      ],
      "name": "balances",
      "outputs": [
        {
          "internalType": "uint256",
          "name": "",
          "type": "uint256"
        }
      ],
      "payable": false,
      "stateMutability": "view",
      "type": "function"
    },
    {
      "constant": true,
      "inputs": [],
      "name": "_decimals",
      "outputs": [
        {
          "internalType": "uint8",
          "name": "",
          "type": "uint8"
        }
      ],
      "payable": false,
      "stateMutability": "view",
      "type": "function"
    },
    {
      "constant": true,
      "inputs": [],
      "name": "_totalSupply",
      "outputs": [
        {
          "internalType": "uint256",
          "name": "",
          "type": "uint256"
        }
      ],
      "payable": false,
      "stateMutability": "view",
      "type": "function"
    },
    {
      "constant": true,
      "inputs": [
        {
          "internalType": "address",
          "name": "",
          "type": "address"
        },
        {
          "internalType": "address",
          "name": "",
          "type": "address"
        }
      ],
      "name": "allowed",
      "outputs": [
        {
          "internalType": "uint256",
          "name": "",
          "type": "uint256"
        }
      ],
      "payable": false,
      "stateMutability": "view",
      "type": "function"
    },
    {
      "constant": true,
      "inputs": [],
      "name": "_symbol",
      "outputs": [
        {
          "internalType": "string",
          "name": "",
          "type": "string"
        }
      ],
      "payable": false,
      "stateMutability": "view",
      "type": "function"
    },
    {
      "constant": true,
      "inputs": [],
      "name": "_name",
      "outputs": [
        {
          "internalType": "string",
          "name": "",
          "type": "string"
        }
      ],
      "payable": false,
      "stateMutability": "view",
      "type": "function"
    },
    {
      "inputs": [
        {
          "internalType": "uint256",
          "name": "_initialAmount",
          "type": "uint256"
        },
        {
          "internalType": "string",
          "name": "_tokenName",
          "type": "string"
        },
        {
          "internalType": "uint8",
          "name": "_decimalUnits",
          "type": "uint8"
        },
        {
          "internalType": "string",
          "name": "_tokenSymbol",
          "type": "string"
        }
      ],
      "payable": false,
      "stateMutability": "nonpayable",
      "type": "constructor"
    },
    {
      "anonymous": false,
      "inputs": [
        {
          "indexed": false,
          "internalType": "uint256",
          "name": "code",
          "type": "uint256"
        },
        {
          "indexed": false,
          "internalType": "string",
          "name": "message",
          "type": "string"
        }
      ],
      "name": "ErrorMessage",
      "type": "event"
    },
    {
      "anonymous": false,
      "inputs": [
        {
          "indexed": true,
          "internalType": "address",
          "name": "owner",
          "type": "address"
        },
        {
          "indexed": true,
          "internalType": "address",
          "name": "spender",
          "type": "address"
        },
        {
          "indexed": false,
          "internalType": "uint256",
          "name": "value",
          "type": "uint256"
        }
      ],
      "name": "Approval",
      "type": "event"
    },
    {
      "anonymous": false,
      "inputs": [
        {
          "indexed": true,
          "internalType": "address",
          "name": "from",
          "type": "address"
        },
        {
          "indexed": true,
          "internalType": "address",
          "name": "to",
          "type": "address"
        },
        {
          "indexed": false,
          "internalType": "uint256",
          "name": "value",
          "type": "uint256"
        }
      ],
      "name": "Transfer",
      "type": "event"
    },
    {
      "constant": true,
      "inputs": [],
      "name": "name",
      "outputs": [
        {
          "internalType": "string",
          "name": "",
          "type": "string"
        }
      ],
      "payable": false,
      "stateMutability": "view",
      "type": "function"
    },
    {
      "constant": true,
      "inputs": [],
      "name": "symbol",
      "outputs": [
        {
          "internalType": "string",
          "name": "",
          "type": "string"
        }
      ],
      "payable": false,
      "stateMutability": "view",
      "type": "function"
    },
    {
      "constant": true,
      "inputs": [],
      "name": "decimals",
      "outputs": [
        {
          "internalType": "uint8",
          "name": "",
          "type": "uint8"
        }
      ],
      "payable": false,
      "stateMutability": "view",
      "type": "function"
    },
    {
      "constant": true,
      "inputs": [],
      "name": "totalSupply",
      "outputs": [
        {
          "internalType": "uint256",
          "name": "",
          "type": "uint256"
        }
      ],
      "payable": false,
      "stateMutability": "view",
      "type": "function"
    },
    {
      "constant": false,
      "inputs": [
        {
          "internalType": "address",
          "name": "_to",
          "type": "address"
        },
        {
          "internalType": "uint256",
          "name": "_value",
          "type": "uint256"
        }
      ],
      "name": "transfer",
      "outputs": [
        {
          "internalType": "bool",
          "name": "success",
          "type": "bool"
        }
      ],
      "payable": false,
      "stateMutability": "nonpayable",
      "type": "function"
    },
    {
      "constant": false,
      "inputs": [
        {
          "internalType": "address",
          "name": "_from",
          "type": "address"
        },
        {
          "internalType": "address",
          "name": "_to",
          "type": "address"
        },
        {
          "internalType": "uint256",
          "name": "_value",
          "type": "uint256"
        }
      ],
      "name": "transferFrom",
      "outputs": [
        {
          "internalType": "bool",
          "name": "success",
          "type": "bool"
        }
      ],
      "payable": false,
      "stateMutability": "nonpayable",
      "type": "function"
    },
    {
      "constant": true,
      "inputs": [
        {
          "internalType": "address",
          "name": "_owner",
          "type": "address"
        }
      ],
      "name": "balanceOf",
      "outputs": [
        {
          "internalType": "uint256",
          "name": "balance",
          "type": "uint256"
        }
      ],
      "payable": false,
      "stateMutability": "view",
      "type": "function"
    },
    {
      "constant": false,
      "inputs": [
        {
          "internalType": "address",
          "name": "_spender",
          "type": "address"
        },
        {
          "internalType": "uint256",
          "name": "_value",
          "type": "uint256"
        }
      ],
      "name": "approve",
      "outputs": [
        {
          "internalType": "bool",
          "name": "success",
          "type": "bool"
        }
      ],
      "payable": false,
      "stateMutability": "nonpayable",
      "type": "function"
    },
    {
      "constant": true,
      "inputs": [
        {
          "internalType": "address",
          "name": "_owner",
          "type": "address"
        },
        {
          "internalType": "address",
          "name": "_spender",
          "type": "address"
        }
      ],
      "name": "allowance",
      "outputs": [
        {
          "internalType": "uint256",
          "name": "remaining",
          "type": "uint256"
        }
      ],
      "payable": false,
      "stateMutability": "view",
      "type": "function"
    },
    {
      "constant": false,
      "inputs": [
        {
          "internalType": "address[]",
          "name": "addresses",
          "type": "address[]"
        },
        {
          "internalType": "uint256[]",
          "name": "values",
          "type": "uint256[]"
        }
      ],
      "name": "massTransfer",
      "outputs": [
        {
          "internalType": "uint256",
          "name": "errorCode",
          "type": "uint256"
        },
        {
          "internalType": "uint256",
          "name": "count",
          "type": "uint256"
        }
      ],
      "payable": false,
      "stateMutability": "nonpayable",
      "type": "function"
    }
  ],
  "bytecode": "0x60806040523480156200001157600080fd5b506040516200148e3803806200148e833981810160405260808110156200003757600080fd5b8101908080519060200190929190805160405193929190846401000000008211156200006257600080fd5b838201915060208201858111156200007957600080fd5b82518660018202830111640100000000821117156200009757600080fd5b8083526020830192505050908051906020019080838360005b83811015620000cd578082015181840152602081019050620000b0565b50505050905090810190601f168015620000fb5780820380516001836020036101000a031916815260200191505b5060405260200180519060200190929190805160405193929190846401000000008211156200012957600080fd5b838201915060208201858111156200014057600080fd5b82518660018202830111640100000000821117156200015e57600080fd5b8083526020830192505050908051906020019080838360005b838110156200019457808201518184015260208101905062000177565b50505050905090810190601f168015620001c25780820380516001836020036101000a031916815260200191505b50604052505050836000803373ffffffffffffffffffffffffffffffffffffffff1673ffffffffffffffffffffffffffffffffffffffff168152602001908152602001600020819055508360058190555082600290805190602001906200022b9291906200026a565b5081600360006101000a81548160ff021916908360ff16021790555080600490805190602001906200025f9291906200026a565b505050505062000319565b828054600181600116156101000203166002900490600052602060002090601f016020900481019282601f10620002ad57805160ff1916838001178555620002de565b82800160010185558215620002de579182015b82811115620002dd578251825591602001919060010190620002c0565b5b509050620002ed9190620002f1565b5090565b6200031691905b8082111562000312576000816000905550600101620002f8565b5090565b90565b61116580620003296000396000f3fe608060405234801561001057600080fd5b50600436106101005760003560e01c80633eaaf86b11610097578063a9059cbb11610066578063a9059cbb1461058c578063b09f1266146105f2578063d28d885214610675578063dd62ed3e146106f857610100565b80633eaaf86b1461041b5780635c6581651461043957806370a08231146104b157806395d89b411461050957610100565b806323b872dd116100d357806323b872dd146102f557806327e235e31461037b578063313ce567146103d357806332424aa3146103f757610100565b806302af20951461010557806306fdde03146101ee578063095ea7b31461027157806318160ddd146102d7575b600080fd5b6101d16004803603604081101561011b57600080fd5b810190808035906020019064010000000081111561013857600080fd5b82018360208201111561014a57600080fd5b8035906020019184602083028401116401000000008311171561016c57600080fd5b90919293919293908035906020019064010000000081111561018d57600080fd5b82018360208201111561019f57600080fd5b803590602001918460208302840111640100000000831117156101c157600080fd5b9091929391929390505050610770565b604051808381526020018281526020019250505060405180910390f35b6101f661088f565b6040518080602001828103825283818151815260200191508051906020019080838360005b8381101561023657808201518184015260208101905061021b565b50505050905090810190601f1680156102635780820380516001836020036101000a031916815260200191505b509250505060405180910390f35b6102bd6004803603604081101561028757600080fd5b81019080803573ffffffffffffffffffffffffffffffffffffffff16906020019092919080359060200190929190505050610931565b604051808215151515815260200191505060405180910390f35b6102df610a23565b6040518082815260200191505060405180910390f35b6103616004803603606081101561030b57600080fd5b81019080803573ffffffffffffffffffffffffffffffffffffffff169060200190929190803573ffffffffffffffffffffffffffffffffffffffff16906020019092919080359060200190929190505050610a2d565b604051808215151515815260200191505060405180910390f35b6103bd6004803603602081101561039157600080fd5b81019080803573ffffffffffffffffffffffffffffffffffffffff169060200190929190505050610cc2565b6040518082815260200191505060405180910390f35b6103db610cda565b604051808260ff1660ff16815260200191505060405180910390f35b6103ff610cf1565b604051808260ff1660ff16815260200191505060405180910390f35b610423610d04565b6040518082815260200191505060405180910390f35b61049b6004803603604081101561044f57600080fd5b81019080803573ffffffffffffffffffffffffffffffffffffffff169060200190929190803573ffffffffffffffffffffffffffffffffffffffff169060200190929190505050610d0a565b6040518082815260200191505060405180910390f35b6104f3600480360360208110156104c757600080fd5b81019080803573ffffffffffffffffffffffffffffffffffffffff169060200190929190505050610d2f565b6040518082815260200191505060405180910390f35b610511610d77565b6040518080602001828103825283818151815260200191508051906020019080838360005b83811015610551578082015181840152602081019050610536565b50505050905090810190601f16801561057e5780820380516001836020036101000a031916815260200191505b509250505060405180910390f35b6105d8600480360360408110156105a257600080fd5b81019080803573ffffffffffffffffffffffffffffffffffffffff16906020019092919080359060200190929190505050610e19565b604051808215151515815260200191505060405180910390f35b6105fa610f6d565b6040518080602001828103825283818151815260200191508051906020019080838360005b8381101561063a57808201518184015260208101905061061f565b50505050905090810190601f1680156106675780820380516001836020036101000a031916815260200191505b509250505060405180910390f35b61067d61100b565b6040518080602001828103825283818151815260200191508051906020019080838360005b838110156106bd5780820151818401526020810190506106a2565b50505050905090810190601f1680156106ea5780820380516001836020036101000a031916815260200191505b509250505060405180910390f35b61075a6004803603604081101561070e57600080fd5b81019080803573ffffffffffffffffffffffffffffffffffffffff169060200190929190803573ffffffffffffffffffffffffffffffffffffffff1690602001909291905050506110a9565b6040518082815260200191505060405180910390f35b60008083839050868690501461078557600080fd5b600080905060008090505b87879050811080156107a457506201adb05a115b1561087a5760008686838181106107b757fe5b9050602002013590506107f28989848181106107cf57fe5b9050602002013573ffffffffffffffffffffffffffffffffffffffff1682610e19565b610864576040517f08c379a000000000000000000000000000000000000000000000000000000000815260040180806020018281038252600b8152602001807f6e6f207472616e7366657200000000000000000000000000000000000000000081525060200191505060405180910390fd5b8280600101935050508080600101915050610790565b50600181819150925092505094509492505050565b606060028054600181600116156101000203166002900480601f0160208091040260200160405190810160405280929190818152602001828054600181600116156101000203166002900480156109275780601f106108fc57610100808354040283529160200191610927565b820191906000526020600020905b81548152906001019060200180831161090a57829003601f168201915b5050505050905090565b600081600160003373ffffffffffffffffffffffffffffffffffffffff1673ffffffffffffffffffffffffffffffffffffffff16815260200190815260200160002060008573ffffffffffffffffffffffffffffffffffffffff1673ffffffffffffffffffffffffffffffffffffffff168152602001908152602001600020819055508273ffffffffffffffffffffffffffffffffffffffff163373ffffffffffffffffffffffffffffffffffffffff167f8c5be1e5ebec7d5bd14f71427d1e84f3dd0314c0f7b2291e5b200ac8c7c3b925846040518082815260200191505060405180910390a36001905092915050565b6000600554905090565b600080600160008673ffffffffffffffffffffffffffffffffffffffff1673ffffffffffffffffffffffffffffffffffffffff16815260200190815260200160002060003373ffffffffffffffffffffffffffffffffffffffff1673ffffffffffffffffffffffffffffffffffffffff168152602001908152602001600020549050826000808773ffffffffffffffffffffffffffffffffffffffff1673ffffffffffffffffffffffffffffffffffffffff1681526020019081526020016000205410158015610afd5750828110155b610b0657600080fd5b826000808673ffffffffffffffffffffffffffffffffffffffff1673ffffffffffffffffffffffffffffffffffffffff16815260200190815260200160002060008282540192505081905550826000808773ffffffffffffffffffffffffffffffffffffffff1673ffffffffffffffffffffffffffffffffffffffff168152602001908152602001600020600082825403925050819055507fffffffffffffffffffffffffffffffffffffffffffffffffffffffffffffffff811015610c515782600160008773ffffffffffffffffffffffffffffffffffffffff1673ffffffffffffffffffffffffffffffffffffffff16815260200190815260200160002060003373ffffffffffffffffffffffffffffffffffffffff1673ffffffffffffffffffffffffffffffffffffffff168152602001908152602001600020600082825403925050819055505b8373ffffffffffffffffffffffffffffffffffffffff168573ffffffffffffffffffffffffffffffffffffffff167fddf252ad1be2c89b69c2b068fc378daa952ba7f163c4a11628f55a4df523b3ef856040518082815260200191505060405180910390a360019150509392505050565b60006020528060005260406000206000915090505481565b6000600360009054906101000a900460ff16905090565b600360009054906101000a900460ff1681565b60055481565b6001602052816000526040600020602052806000526040600020600091509150505481565b60008060008373ffffffffffffffffffffffffffffffffffffffff1673ffffffffffffffffffffffffffffffffffffffff168152602001908152602001600020549050919050565b606060048054600181600116156101000203166002900480601f016020809104026020016040519081016040528092919081815260200182805460018160011615610100020316600290048015610e0f5780601f10610de457610100808354040283529160200191610e0f565b820191906000526020600020905b815481529060010190602001808311610df257829003601f168201915b5050505050905090565b6000816000803373ffffffffffffffffffffffffffffffffffffffff1673ffffffffffffffffffffffffffffffffffffffff168152602001908152602001600020541015610e6657600080fd5b816000803373ffffffffffffffffffffffffffffffffffffffff1673ffffffffffffffffffffffffffffffffffffffff16815260200190815260200160002060008282540392505081905550816000808573ffffffffffffffffffffffffffffffffffffffff1673ffffffffffffffffffffffffffffffffffffffff168152602001908152602001600020600082825401925050819055508273ffffffffffffffffffffffffffffffffffffffff163373ffffffffffffffffffffffffffffffffffffffff167fddf252ad1be2c89b69c2b068fc378daa952ba7f163c4a11628f55a4df523b3ef846040518082815260200191505060405180910390a36001905092915050565b60048054600181600116156101000203166002900480601f0160208091040260200160405190810160405280929190818152602001828054600181600116156101000203166002900480156110035780601f10610fd857610100808354040283529160200191611003565b820191906000526020600020905b815481529060010190602001808311610fe657829003601f168201915b505050505081565b60028054600181600116156101000203166002900480601f0160208091040260200160405190810160405280929190818152602001828054600181600116156101000203166002900480156110a15780601f10611076576101008083540402835291602001916110a1565b820191906000526020600020905b81548152906001019060200180831161108457829003601f168201915b505050505081565b6000600160008473ffffffffffffffffffffffffffffffffffffffff1673ffffffffffffffffffffffffffffffffffffffff16815260200190815260200160002060008373ffffffffffffffffffffffffffffffffffffffff1673ffffffffffffffffffffffffffffffffffffffff1681526020019081526020016000205490509291505056fea265627a7a72315820e9145c642fdf8477aa5a0fb279ef1bfe782b024894da5458673ad2b4e89013a764736f6c634300050b0032",
  "source": "pragma solidity ^0.5.11;\n\nimport \"./ERC20.sol\";\nimport \"../helpers/MassTransferERC20.sol\";\n\n\n/**\n* @title BasicToken contract\n* @dev Implements EIP20 token standard:\n* @dev https://github.com/ethereum/EIPs/blob/master/EIPS/eip-20.md\n* @author https://github.com/alesanro\n* @author Refactored by https://github.com/danburck\n**/\ncontract BasicToken is ERC20 {\n\n  event ErrorMessage(uint code, string message);\n\n  uint256 constant private MAX_UINT256 = 2**256 - 1;\n  mapping (address => uint256) public balances;\n  mapping (address => mapping (address => uint256)) public allowed;\n\n  /**\n   * NOTE:\n   * The following variables are OPTIONAL vanities. One does not have to include\n   * them. They allow one to customise the token contract & in no way influences\n   * the core functionality. Some wallets/interfaces might not even bother to\n   * look at this information.\n   **/\n  string public _name;\n  uint8 public _decimals;\n  string public _symbol;\n  uint256 public _totalSupply;\n\n  /**\n   * @dev Contract constructor. Function is invoked by inittial deployer of the\n   *    contract\n   *    - Gives the creator all initial tokens\n   *    - Updates total supply\n   * \t\t- Sets the values for name, symbol, and decimals. All three of these\n   * \t\t\tvalues are immutable: they can only be set once during construction.\n   * @param _initialAmount The initial supply of tokens\n   * @param _tokenName The name of the token\n   * @param _decimalUnits the decimal unit of the token\n   * @param _tokenSymbol The symbol of the token\n   */\n  constructor(\n    uint256 _initialAmount,\n    string memory _tokenName,\n    uint8 _decimalUnits,\n    string memory _tokenSymbol\n  ) public {\n    balances[msg.sender] = _initialAmount;\n    _totalSupply = _initialAmount;\n    _name = _tokenName;\n    _decimals = _decimalUnits;\n    _symbol = _tokenSymbol;\n  }\n\n  /**\n   * @dev Returns the name of the token.\n   * @return The name of the token.\n   */\n  function name() public view returns (string memory) {\n    return _name;\n  }\n\n  /**\n   * @dev Returns the symbol of the token, usually a shorter version of the\n   * \t\tname.\n   * @return The symbol of the token.\n   */\n  function symbol() public view returns (string memory) {\n    return _symbol;\n  }\n\n  /**\n   * @dev Returns the number of decimals used to get its user representation.\n   * \t\t- E.g. if decimals equals 2, a balance of 505 tokens should be\n   * \t\t\tdisplayed to a user as 5,05 (505 / 10 ** 2).\n   * @return The number of decimals\n   */\n  function decimals() public view returns (uint8) {\n    return _decimals;\n  }\n\n  /**\n   * @dev Get the amount of tokens in existence.\n   * @return the amount of tokens in existence.\n   */\n  function totalSupply() public view returns (uint256) {\n    return _totalSupply;\n  }\n\n  /**\n   * @dev Moves an amount of tokens from the caller’s account to recipient.\n   * @dev Emits a Transfer event.\n   * @param _to The address of the account to transfer tokens to\n   * @param _value The amount of tokens\n   * @return Boolean value indicating whether the operation succeeded.\n   */\n  function transfer(\n    address _to,\n    uint256 _value\n  )\n    public returns (bool success)\n  {\n    require(balances[msg.sender] >= _value);\n    balances[msg.sender] -= _value;\n    balances[_to] += _value;\n    emit Transfer(msg.sender, _to, _value); //solhint-disable-line indent, no-unused-vars\n    return true;\n  }\n\n  /**\n   * @dev Moves amount of tokens from sender to recipient using the allowance\n   * \t\tmechanism. The amount is then deducted from the caller’s allowance.\n   * @dev\tEmits a Transfer event.\n   * @param _from The address of the sender\n   * @param _to The address of the recipient\n   * @param _value The amount of tokens\n   * @return Boolean value indicating whether the operation succeeded.\n   */\n  function transferFrom(\n    address _from,\n    address _to,\n    uint256 _value\n  )\n    public returns (bool success)\n  {\n    uint256 allowance = allowed[_from][msg.sender];\n    require(balances[_from] >= _value && allowance >= _value);\n    balances[_to] += _value;\n    balances[_from] -= _value;\n    if (allowance < MAX_UINT256) {\n      allowed[_from][msg.sender] -= _value;\n    }\n    emit Transfer(_from, _to, _value); //solhint-disable-line indent, no-unused-vars\n    return true;\n  }\n\n  /**\n   * @dev Get the amount of tokens owned by account\n   * @param _owner The address of the owner\n   * @return The amount of tokens owned by account\n   */\n  function balanceOf(\n    address _owner\n  )\n    public view returns (uint256 balance)\n  {\n    return balances[_owner];\n  }\n\n  /**\n   * @dev Sets the allowance amount of spender over the caller’s tokens.\n   * @param _spender The address of the owner\n   * @param _value value of the amount\n   * @return Boolean value indicating whether the operation succeeded.\n   */\n  function approve(\n    address _spender,\n    uint256 _value\n  )\n    public returns (bool success)\n  {\n    allowed[msg.sender][_spender] = _value;\n    emit Approval(msg.sender, _spender, _value); //solhint-disable-line indent, no-unused-vars\n    return true;\n  }\n\n  /**\n   * @dev Returns the remaining number of tokens that spender will be allowed\n   * \t\tto spend on behalf of owner through transferFrom. This is zero by\n   *\t\tdefault. This value changes when approve or transferFrom are called.\n   * @param _owner The address of the owner\n   * @param _spender The address of the spender\n   * @return remaining number of tokens that spender will be allowed to spend\n   * \t\ton behalf of owner through transferFrom.\n   */\n  function allowance(\n    address _owner,\n    address _spender\n  )\n    public view returns (uint256 remaining)\n  {\n    return allowed[_owner][_spender];\n  }\n\n  /**\n   * @dev Moves amounts of tokens from the caller’s account to several\n   * \t\trecipients.\n   * @param addresses The address[] of the accounts to transfer tokens to\n   * @param values The amount[] of tokens\n   * @return Boolean value indicating whether the operation succeeded.\n   */\n  function massTransfer(\n    address[] calldata addresses,\n    uint[] calldata values\n  )\n    external returns (uint errorCode, uint count)\n  {\n    require(addresses.length == values.length);\n\n    uint success = 0;\n    for (uint idx = 0; idx < addresses.length && gasleft() > 110000; idx++) {\n      uint value = values[idx];\n      if (!transfer(addresses[idx], value)) {\n        revert(\"no transfer\");\n      }\n      success++;\n    }\n\n    return (1, success);\n  }\n}",
  "sourcePath": "/Users/danielburckhardt/code/ethermint-simple-smart-contract/contracts/erc20/BasicToken.sol",
  "compiler": {
    "name": "solc",
    "version": "0.5.11+commit.c082d0b4.Emscripten.clang"
  },
  "schemaVersion": "3.2.5",
  "updatedAt": "2021-09-01T16:33:05.926Z",
  "devdoc": {
    "author": "https://github.com/alesanroRefactored by https://github.com/danburck*",
    "details": "Implements EIP20 token standard:https://github.com/ethereum/EIPs/blob/master/EIPS/eip-20.md",
    "methods": {
      "allowance(address,address)": {
        "details": "Returns the remaining number of tokens that spender will be allowed\t\tto spend on behalf of owner through transferFrom. This is zero by\tdefault. This value changes when approve or transferFrom are called.",
        "params": {
          "_owner": "The address of the owner",
          "_spender": "The address of the spender"
        },
        "return": "remaining number of tokens that spender will be allowed to spend\t\ton behalf of owner through transferFrom."
      },
      "approve(address,uint256)": {
        "details": "Sets the allowance amount of spender over the caller’s tokens.",
        "params": {
          "_spender": "The address of the owner",
          "_value": "value of the amount"
        },
        "return": "Boolean value indicating whether the operation succeeded."
      },
      "balanceOf(address)": {
        "details": "Get the amount of tokens owned by account",
        "params": {
          "_owner": "The address of the owner"
        },
        "return": "The amount of tokens owned by account"
      },
      "constructor": {
        "details": "Contract constructor. Function is invoked by inittial deployer of the   contract   - Gives the creator all initial tokens   - Updates total supply\t\t- Sets the values for name, symbol, and decimals. All three of these\t\t\tvalues are immutable: they can only be set once during construction.",
        "params": {
          "_decimalUnits": "the decimal unit of the token",
          "_initialAmount": "The initial supply of tokens",
          "_tokenName": "The name of the token",
          "_tokenSymbol": "The symbol of the token"
        }
      },
      "decimals()": {
        "details": "Returns the number of decimals used to get its user representation.\t\t- E.g. if decimals equals 2, a balance of 505 tokens should be\t\t\tdisplayed to a user as 5,05 (505 / 10 ** 2).",
        "return": "The number of decimals"
      },
      "massTransfer(address[],uint256[])": {
        "details": "Moves amounts of tokens from the caller’s account to several\t\trecipients.",
        "params": {
          "addresses": "The address[] of the accounts to transfer tokens to",
          "values": "The amount[] of tokens"
        },
        "return": "Boolean value indicating whether the operation succeeded."
      },
      "name()": {
        "details": "Returns the name of the token.",
        "return": "The name of the token."
      },
      "symbol()": {
        "details": "Returns the symbol of the token, usually a shorter version of the\t\tname.",
        "return": "The symbol of the token."
      },
      "totalSupply()": {
        "details": "Get the amount of tokens in existence.",
        "return": "the amount of tokens in existence."
      },
      "transfer(address,uint256)": {
        "details": "Moves an amount of tokens from the caller’s account to recipient.Emits a Transfer event.",
        "params": {
          "_to": "The address of the account to transfer tokens to",
          "_value": "The amount of tokens"
        },
        "return": "Boolean value indicating whether the operation succeeded."
      },
      "transferFrom(address,address,uint256)": {
        "details": "Moves amount of tokens from sender to recipient using the allowance\t\tmechanism. The amount is then deducted from the caller’s allowance.Emits a Transfer event.",
        "params": {
          "_from": "The address of the sender",
          "_to": "The address of the recipient",
          "_value": "The amount of tokens"
        },
        "return": "Boolean value indicating whether the operation succeeded."
      }
    },
    "title": "BasicToken contract"
  },
  "userdoc": {
    "methods": {}
  }
}