{
  "contractName": "Counter",
  "abi": [
    {
      "constant": false,
      "inputs": [],
      "name": "add",
      "outputs": [],
      "payable": false,
      "stateMutability": "nonpayable",
      "type": "function"
    },
    {
      "constant": false,
      "inputs": [],
      "name": "subtract",
      "outputs": [],
      "payable": false,
      "stateMutability": "nonpayable",
      "type": "function"
    },
    {
      "constant": true,
      "inputs": [],
      "name": "getCounter",
      "outputs": [
        {
          "internalType": "uint256",
          "name": "",
          "type": "uint256"
        }
      ],
      "payable": false,
      "stateMutability": "view",
      "type": "function"
    }
  ],
  "bytecode": "0x60806040526000805534801561001457600080fd5b5060d2806100236000396000f3fe6080604052348015600f57600080fd5b5060043610603c5760003560e01c80634f2be91f1460415780636deebae31460495780638ada066e146051575b600080fd5b6047606d565b005b604f6080565b005b60576094565b6040518082815260200191505060405180910390f35b6000808154809291906001019190505550565b600080815480929190600190039190505550565b6000805490509056fea265627a7a723158200ba3ed651b2cb04ad41ea2bc80c6302fb4d982411ff4780306b17a6e9efc261864736f6c63430005100032",
  "source": "pragma solidity ^0.5.11;\n\n// Simple contract to for testing the conneciton to node\ncontract Counter {\n  uint256 counter = 0;\n\n  function add() public {\n    counter++;\n  }\n\n  function subtract() public {\n    counter--;\n  }\n\n  function getCounter() public view returns (uint256) {\n    return counter;\n  }\n}",
  "sourcePath": "/Users/danielburckhardt/code/ethermint-simple-smart-contract/contracts/Counter.sol",
  "compiler": {
    "name": "solc",
    "version": "0.5.16+commit.9c3226ce.Emscripten.clang"
  },
  "schemaVersion": "3.2.5",
  "updatedAt": "2021-08-29T14:05:59.374Z",
  "devdoc": {
    "methods": {}
  },
  "userdoc": {
    "methods": {}
  }
}